S01000006261636B5F6C65642E73726563EF
S11300000C942A000C9447000C9447000C9447006D
S11300100C9447000C9447000C9447000C94470040
S11300200C9447000C9447000C9447000C94470030
S11300300C9447000C9447000C9447000C94470020
S11300400C9447000C9447000C9447000C94470010
S11300500C94470011241FBECFE5D8E0DEBFCDBF0E
S113006010E0A0E6B0E0E2E7F8E002C005900D92EF
S1130070A63AB107D9F720E0A6EAB0E001C01D9284
S1130080A73AB207E1F70E946A020C9437040C9471
S1130090000041E066E083E00E947E0241E067E008
S11300A083E00E947E0241E060E083E00E947E02E1
S11300B041E061E083E00E947E0241E062E083E08F
S11300C00E947E0241E063E083E00E947E0241E000
S11300D064E083E00E947E0241E065E083E00E94E8
S11300E07E0240E063E080E00E947E020E94C20142
S11300F0089541E065E083E00E94060340E064E087
S113010083E00E9406030E941C0280E690E00E94A5
S113011009022FEB87E299E0215080409040E1F7FB
S113012000C00000089541E067E083E00E940603F8
S11301300E941C028EE790E00E9409024AE050E00F
S113014060E083E00E94430240E067E083E00E94B5
S1130150060360E083E00E943F020E941C0282E9E1
S113016090E00E9409022FEB87E299E02150804041
S11301709040E1F700C00000089541E067E083E0AB
S11301800E9406030E941C028EE790E00E9409026E
S11301904AE050E061E083E00E94430240E067E00F
S11301A083E00E94060361E083E00E943F020E9414
S11301B01C0282E990E00E9409022FEB87E299E099
S11301C0215080409040E1F700C00000089541E0D4
S11301D067E083E00E9406030E941C028EE790E021
S11301E00E9409024AE050E062E083E00E94430278
S11301F040E067E083E00E94060362E083E00E943F
S11302003F020E941C0282E990E00E9409022FEB47
S113021087E299E0215080409040E1F700C000005F
S1130220089541E067E083E00E9406030E941C02F7
S11302308EE790E00E9409024AE050E063E083E028
S11302400E94430240E067E083E00E94060363E00B
S113025083E00E943F020E941C0240E065E083E0CC
S11302600E94060341E064E083E00E94060382E901
S113027090E00E9409022FEB87E299E02150804030
S11302809040E1F700C00000089541E066E083E09B
S11302900E9406030E941C028FE990E00E9409025A
S11302A02FEB87E299E0215080409040E1F700C0B5
S11302B0000040E066E083E00E940603089540E009
S11302C060E083E00E94060340E061E083E00E9476
S11302D0060340E062E083E00E94060340E063E03E
S11302E083E00E9406030E9479000E9493000E940A
S11302F045010E94BD000E9445010E94E7000E9442
S113030045010E9411010895CF93C82F40E060E099
S113031080E00E94060340E061E080E00E94060362
S1130320C5BB41E062E080E00E94060383EF91E0F8
S11303300197F1F700C0000040E062E080E00E9415
S11303400603CF910895CF93C82F41E060E080E089
S11303500E94060340E061E080E00E940603C5BB02
S113036041E062E080E00E94060383EF91E00197A0
S1130370F1F700C0000040E062E080E00E94060364
S1130380CF91089541E060E080E00E947E0241E068
S113039061E080E00E947E0241E062E080E00E9431
S11303A07E0241E060E082E00E947E0241E061E082
S11303B082E00E947E0241E062E082E00E947E02CE
S11303C041E063E082E00E947E0241E064E082E07A
S11303D00E947E0241E065E082E00E947E0241E0EC
S11303E066E082E00E947E0241E067E082E00E94D3
S11303F07E028FE097E20197F1F700C0000088E3E6
S11304000E9484018CE00E94840181E00E948401A6
S113041008950F931F93CF938C01C0E003C00E94F3
S1130420A301CF5FF801EC0FF11D80818111F7CF9B
S1130430CF911F910F91089581E085BB40E060E06A
S113044080E00E94060340E061E080E00E94060331
S113045041E062E080E00E94060383EF91E00197AF
S1130460F1F700C0000040E062E080E00E94060373
S113047083EC99E00197F1F700C00000089541E092
S11304800E9406030895EF92FF920F931F93CF9358
S1130490DF93E82EF62E8A01000F111F000F111FA3
S11304A0000F111FC0E0D0E00BC06F2D8E2D0E94F5
S11304B0F70381E19AE70197F1F700C00000219664
S11304C0C017D10794F3DF91CF911F910F91FF9043
S11304D0EF900895CF93DF931F92CDB7DEB70E94BC
S11304E04900AE014F5F5F4F63E080E00E948E03DE
S11304F089818130B1F70E945F01F3CF1092A60089
S1130500411140C0813099F028F08230E9F0833005
S113051041F134C02AB381E090E002C0880F991FF2
S11305206A95E2F7809582238ABB8ABB6CC027B3A5
S113053081E090E002C0880F991F6A95E2F78095E8
S1130540822387BB87BB5FC024B381E090E002C0F5
S1130550880F991F6A95E2F78095822384BB84BB38
S113056052C021B381E090E002C0880F991F6A95C0
S1130570E2F78095822381BB81BB45C081E08093F3
S1130580A60041C04130E1F5813091F028F082307D
S1130590D9F0833029F130C02AB381E090E002C061
S11305A0880F991F6A95E2F7822B8ABB8ABB2BC0FE
S11305B027B381E090E002C0880F991F6A95E2F7A3
S11305C0822B87BB87BB1FC024B381E090E002C0AD
S11305D0880F991F6A95E2F7822B84BB84BB13C0F2
S11305E021B381E090E002C0880F991F6A95E2F779
S11305F0822B81BB81BB07C081E08093A60003C02E
S113060081E08093A6008091A60008951092A60030
S1130610411140C0813099F028F08230E9F08330F4
S113062041F134C02BB381E090E002C0880F991FE0
S11306306A95E2F7809582238BBB8BBB6CC028B391
S113064081E090E002C0880F991F6A95E2F78095D7
S1130650822388BB88BB5FC025B381E090E002C0E1
S1130660880F991F6A95E2F78095822385BB85BB25
S113067052C022B381E090E002C0880F991F6A95AE
S1130680E2F78095822382BB82BB45C081E08093E0
S1130690A60041C04130E1F5813091F028F082306C
S11306A0D9F0833029F130C02BB381E090E002C04F
S11306B0880F991F6A95E2F7822B8BBB8BBB2BC0EB
S11306C028B381E090E002C0880F991F6A95E2F791
S11306D0822B88BB88BB1FC025B381E090E002C099
S11306E0880F991F6A95E2F7822B85BB85BB13C0DF
S11306F022B381E090E002C0880F991F6A95E2F767
S1130700822B82BB82BB07C081E08093A60003C01A
S113071081E08093A6008091A60008951092A6001F
S11307208130E9F030F0823081F1833009F443C044
S113073058C079B381E090E09C01062E02C0220FDC
S1130740331F0A94E2F7872F90E08223932302C099
S1130750959587956A95E2F7FA01808345C076B34B
S113076081E090E09C01062E02C0220F331F0A9400
S1130770E2F7872F90E08223932302C09595879513
S11307806A95E2F7FA0180832FC073B381E090E0A9
S11307909C01062E02C0220F331F0A94E2F7872F12
S11307A090E08223932302C0959587956A95E2F79A
S11307B0FA01808319C070B381E090E09C01062E99
S11307C002C0220F331F0A94E2F7872F90E082239E
S11307D0932302C0959587956A95E2F7FA01808381
S11307E003C081E08093A6008091A6000895109232
S11307F0A600813091F028F08230D9F0833029F1BD
S113080030C02BB381E090E002C0880F991F6A9535
S1130810E2F782278BBB8BBB27C028B381E090E033
S113082002C0880F991F6A95E2F7822788BB88BBAC
S11308301BC025B381E090E002C0880F991F6A9520
S1130840E2F7822785BB85BB0FC022B381E090E02D
S113085002C0880F991F6A95E2F7822782BB82BB88
S113086003C081E08093A6008091A6000895F894C7
S1050870FFCFB4
S11308722E2E2E77656C636F6D652E2E2E006D61A4
S11308826368696E6520697320646F6E65006669CA
S11308926C6C696E672070726F63657373696E67DF
S11308A2200066696C6C696E6720646F6E65007700
S10908B2616974202000BE
S9030000FC
