S017000066696C6C696E67206D616368696E652E7372656333
S11300000C942A000C9447000C9447000C9447006D
S11300100C9447000C9447000C9447000C94470040
S11300200C9447000C9447000C9447000C94470030
S11300300C9447000C9447000C9447000C94470020
S11300400C9447000C9447000C9447000C94470010
S11300500C94470011241FBECFE5D8E0DEBFCDBF0E
S113006010E0A0E6B0E0E6E6F8E002C005900D92EC
S1130070A63DB107D9F720E0A6EDB0E001C01D927E
S1130080A73DB207E1F70E9464020C9431040C947A
S1130090000041E066E083E00E94780241E067E00E
S11300A083E00E94780241E060E083E00E947802ED
S11300B041E061E083E00E94780241E062E083E095
S11300C00E94780241E063E083E00E94780241E00C
S11300D064E083E00E94780241E065E083E00E94EE
S11300E0780240E063E080E00E9478020E94BC0154
S11300F0089541E065E083E00E94000340E064E08D
S113010083E00E9400030E94160280E690E00E94B1
S113011003022FEB87E299E0215080409040E1F701
S113012000C00000089540E065E083E00E94000301
S113013041E064E083E00E9400030E9416028EE620
S113014090E00E940302089541E067E083E00E948A
S113015000030E9416028EE790E00E9403024AE028
S113016050E060E083E00E943D0240E067E083E00D
S11301700E94000360E083E00E9439020E9416029C
S11301808FE890E00E9403022FEB87E299E0215070
S113019080409040E1F700C00000089541E067E02E
S11301A083E00E9400030E9416028CE990E00E9402
S11301B003024AE050E061E083E00E943D0240E037
S11301C067E083E00E94000361E083E00E9439025B
S11301D00E9416028FE890E00E9403022FEB87E250
S11301E099E0215080409040E1F700C0000008955C
S11301F041E067E083E00E9400030E9416028DEA5A
S113020090E00E9403024AE050E062E083E00E9432
S11302103D0240E067E083E00E94000362E083E087
S11302200E9439020E9416028FE890E00E940302A5
S11302302FEB87E299E0215080409040E1F700C025
S11302400000089541E067E083E00E9400030E94FB
S113025016028EEB90E00E9403024AE050E063E055
S113026083E00E943D0240E067E083E00E940003D7
S113027063E083E00E943902089541E066E083E090
S11302800E9400030E9416028FEC90E00E94030279
S11302902FEB87E299E0215080409040E1F700C0C5
S11302A0000040E066E083E00E940003089540E01F
S11302B060E083E00E94000340E061E083E00E948C
S11302C0000340E062E083E00E94000340E063E05A
S11302D083E00E9400030E9479000E94A4000E940F
S11302E03D010E94CE000E943D010E94F8000E9440
S11302F03D010E9422010E9493000895CF93C82FCC
S113030040E060E080E00E94000340E061E080E0C3
S11303100E940003C5BB41E062E080E00E9400034C
S113032083EF91E00197F1F700C0000040E062E044
S113033080E00E940003CF910895CF93C82F41E03D
S113034060E080E00E94000340E061E080E00E9401
S11303500003C5BB41E062E080E00E94000383EF3C
S113036091E00197F1F700C0000040E062E080E016
S11303700E940003CF91089541E060E080E00E9474
S1130380780241E061E080E00E94780241E062E0AE
S113039080E00E94780241E060E082E00E947802FE
S11303A041E061E082E00E94780241E062E082E0A4
S11303B00E94780241E063E082E00E94780241E01A
S11303C064E082E00E94780241E065E082E00E94FD
S11303D0780241E066E082E00E94780241E067E052
S11303E082E00E9478028FE097E20197F1F700C063
S11303F0000088E30E947E018CE00E947E0181E07F
S11304000E947E0108950F931F93CF938C01C0E047
S113041003C00E949D01CF5FF801EC0FF11D8081A4
S11304208111F7CFCF911F910F91089581E085BB82
S113043040E060E080E00E94000340E061E080E092
S11304400E94000341E062E080E00E94000383EF29
S113045091E00197F1F700C0000040E062E080E025
S11304600E94000383EC99E00197F1F700C00000BB
S1130470089541E00E9400030895EF92FF920F93C4
S11304801F93CF93DF93E82EF62E8A01000F111FDE
S1130490000F111F000F111FC0E0D0E00BC06F2D23
S11304A08E2D0E94F10381E19AE70197F1F700C0D4
S11304B000002196C017D10794F3DF91CF911F91CB
S11304C00F91FF90EF900895CF93DF931F92CDB7D4
S11304D0DEB70E944900AE014F5F5F4F63E080E0EA
S11304E00E94880389818130B1F70E945701F3CFBC
S11304F01092D600411140C0813099F028F082302A
S1130500E9F0833041F134C02AB381E090E002C0C5
S1130510880F991F6A95E2F7809582238ABB8ABB6C
S11305206CC027B381E090E002C0880F991F6A95E0
S1130530E2F78095822387BB87BB5FC024B381E049
S113054090E002C0880F991F6A95E2F78095822394
S113055084BB84BB52C021B381E090E002C0880F09
S1130560991F6A95E2F78095822381BB81BB45C0C0
S113057081E08093D60041C04130E1F5813091F0B3
S113058028F08230D9F0833029F130C02AB381E0D9
S113059090E002C0880F991F6A95E2F7822B8ABB0C
S11305A08ABB2BC027B381E090E002C0880F991F5B
S11305B06A95E2F7822B87BB87BB1FC024B381E017
S11305C090E002C0880F991F6A95E2F7822B84BBE2
S11305D084BB13C021B381E090E002C0880F991F4F
S11305E06A95E2F7822B81BB81BB07C081E08093CF
S11305F0D60003C081E08093D6008091D600089590
S11306001092D600411140C0813099F028F0823018
S1130610E9F0833041F134C02BB381E090E002C0B3
S1130620880F991F6A95E2F7809582238BBB8BBB59
S11306306CC028B381E090E002C0880F991F6A95CE
S1130640E2F78095822388BB88BB5FC025B381E035
S113065090E002C0880F991F6A95E2F78095822383
S113066085BB85BB52C022B381E090E002C0880FF5
S1130670991F6A95E2F78095822382BB82BB45C0AD
S113068081E08093D60041C04130E1F5813091F0A2
S113069028F08230D9F0833029F130C02BB381E0C7
S11306A090E002C0880F991F6A95E2F7822B8BBBFA
S11306B08BBB2BC028B381E090E002C0880F991F48
S11306C06A95E2F7822B88BB88BB1FC025B381E003
S11306D090E002C0880F991F6A95E2F7822B85BBD0
S11306E085BB13C022B381E090E002C0880F991F3C
S11306F06A95E2F7822B82BB82BB07C081E08093BC
S1130700D60003C081E08093D6008091D60008957E
S11307101092D6008130E9F030F0823081F18330DC
S113072009F443C058C079B381E090E09C01062EDF
S113073002C0220F331F0A94E2F7872F90E082232E
S1130740932302C0959587956A95E2F7FA01808311
S113075045C076B381E090E09C01062E02C0220FD2
S1130760331F0A94E2F7872F90E08223932302C079
S1130770959587956A95E2F7FA0180832FC073B344
S113078081E090E09C01062E02C0220F331F0A94E0
S1130790E2F7872F90E08223932302C095958795F3
S11307A06A95E2F7FA01808319C070B381E090E0A2
S11307B09C01062E02C0220F331F0A94E2F7872FF2
S11307C090E08223932302C0959587956A95E2F77A
S11307D0FA01808303C081E08093D6008091D60023
S11307E008951092D600813091F028F08230D9F02B
S11307F0833029F130C02BB381E090E002C0880F30
S1130800991F6A95E2F782278BBB8BBB27C028B35D
S113081081E090E002C0880F991F6A95E2F7822771
S113082088BB88BB1BC025B381E090E002C0880F61
S1130830991F6A95E2F7822785BB85BB0FC022B357
S113084081E090E002C0880F991F6A95E2F7822741
S113085082BB82BB03C081E08093D6008091D60026
S10908600895F894FFCF97
S11308662E2E2E77656C636F6D652E2E2E006D61B0
S11308766368696E6520697320646F6E65006669D6
S11308866C6C696E6720626F74746C6520310066E7
S1130896696C6C696E6720646F6E650066696C6C62
S11308A6696E6720626F74746C6520320066696CC9
S11308B66C696E6720626F74746C652033006669B8
S11308C66C6C696E6720626F74746C652034007793
S10908D66169742020009A
S9030000FC
